{
  "_format": "hh-sol-artifact-1",
  "contractName": "Roulette",
  "sourceName": "contracts/Roulette.sol",
  "abi": [
    {
      "inputs": [],
      "stateMutability": "payable",
      "type": "constructor"
    },
    {
      "anonymous": false,
      "inputs": [
        {
          "indexed": true,
          "internalType": "uint256",
          "name": "gameId",
          "type": "uint256"
        },
        {
          "indexed": false,
          "internalType": "uint256",
          "name": "startAt",
          "type": "uint256"
        }
      ],
      "name": "GameStarted",
      "type": "event"
    },
    {
      "anonymous": false,
      "inputs": [
        {
          "indexed": true,
          "internalType": "uint256",
          "name": "gameId",
          "type": "uint256"
        },
        {
          "indexed": true,
          "internalType": "uint256",
          "name": "number",
          "type": "uint256"
        }
      ],
      "name": "RandomNumber",
      "type": "event"
    },
    {
      "inputs": [],
      "name": "allWithdraw",
      "outputs": [],
      "stateMutability": "nonpayable",
      "type": "function"
    },
    {
      "inputs": [],
      "name": "cashOut",
      "outputs": [],
      "stateMutability": "nonpayable",
      "type": "function"
    },
    {
      "inputs": [
        {
          "internalType": "uint256",
          "name": "",
          "type": "uint256"
        }
      ],
      "name": "games",
      "outputs": [
        {
          "internalType": "uint256",
          "name": "startAt",
          "type": "uint256"
        },
        {
          "internalType": "bool",
          "name": "started",
          "type": "bool"
        },
        {
          "internalType": "bool",
          "name": "isActive",
          "type": "bool"
        },
        {
          "internalType": "bool",
          "name": "fulfilled",
          "type": "bool"
        },
        {
          "internalType": "uint256",
          "name": "paid",
          "type": "uint256"
        }
      ],
      "stateMutability": "view",
      "type": "function"
    },
    {
      "inputs": [],
      "name": "gamesCount",
      "outputs": [
        {
          "internalType": "uint256",
          "name": "",
          "type": "uint256"
        }
      ],
      "stateMutability": "view",
      "type": "function"
    },
    {
      "inputs": [],
      "name": "getBalances",
      "outputs": [
        {
          "internalType": "uint256",
          "name": "",
          "type": "uint256"
        },
        {
          "internalType": "uint256",
          "name": "",
          "type": "uint256"
        }
      ],
      "stateMutability": "view",
      "type": "function"
    },
    {
      "inputs": [],
      "name": "owner",
      "outputs": [
        {
          "internalType": "address",
          "name": "",
          "type": "address"
        }
      ],
      "stateMutability": "view",
      "type": "function"
    },
    {
      "inputs": [
        {
          "internalType": "uint8",
          "name": "_number",
          "type": "uint8"
        },
        {
          "internalType": "uint8",
          "name": "_betType",
          "type": "uint8"
        }
      ],
      "name": "placeBet",
      "outputs": [],
      "stateMutability": "payable",
      "type": "function"
    },
    {
      "inputs": [
        {
          "internalType": "address",
          "name": "",
          "type": "address"
        }
      ],
      "name": "players",
      "outputs": [
        {
          "internalType": "uint8",
          "name": "betType",
          "type": "uint8"
        },
        {
          "internalType": "uint8",
          "name": "number",
          "type": "uint8"
        },
        {
          "internalType": "bool",
          "name": "isExists",
          "type": "bool"
        }
      ],
      "stateMutability": "view",
      "type": "function"
    },
    {
      "inputs": [
        {
          "internalType": "uint256",
          "name": "_requestId",
          "type": "uint256"
        },
        {
          "internalType": "uint256[]",
          "name": "_randomWords",
          "type": "uint256[]"
        }
      ],
      "name": "rawFulfillRandomWords",
      "outputs": [],
      "stateMutability": "nonpayable",
      "type": "function"
    },
    {
      "inputs": [],
      "name": "safeWithdraw",
      "outputs": [],
      "stateMutability": "nonpayable",
      "type": "function"
    },
    {
      "inputs": [],
      "name": "spin",
      "outputs": [
        {
          "internalType": "uint256",
          "name": "",
          "type": "uint256"
        }
      ],
      "stateMutability": "nonpayable",
      "type": "function"
    },
    {
      "inputs": [],
      "name": "withdrawLink",
      "outputs": [],
      "stateMutability": "nonpayable",
      "type": "function"
    },
    {
      "stateMutability": "payable",
      "type": "receive"
    }
  ],
  "bytecode": "0x60e060405273779877a7b0d9e8603169ddbd7836e478b462478973ab18414cd93297b0d12ac29e63ca20f515b3db468173ffffffffffffffffffffffffffffffffffffffff1660808173ffffffffffffffffffffffffffffffffffffffff16815250508073ffffffffffffffffffffffffffffffffffffffff1660a08173ffffffffffffffffffffffffffffffffffffffff168152505050503373ffffffffffffffffffffffffffffffffffffffff1660c08173ffffffffffffffffffffffffffffffffffffffff16815250506040518060c00160405280600260ff168152602001600360ff168152602001600360ff168152602001600260ff168152602001600260ff168152602001602460ff1681525060009060066200012392919062000182565b506040518060c00160405280600160ff168152602001600260ff168152602001600260ff168152602001600160ff168152602001600160ff168152602001602460ff1681525060019060066200017b92919062000182565b5062000242565b826006601f01602090048101928215620002105791602002820160005b83821115620001df57835183826101000a81548160ff021916908360ff16021790555092602001926001016020816000010492830192600103026200019f565b80156200020e5782816101000a81549060ff0219169055600101602081600001049283019260010302620001df565b505b5090506200021f919062000223565b5090565b5b808211156200023e57600081600090555060010162000224565b5090565b60805160a05160c051612a70620002b860003960008181610523015281816106300152818161069b015281816106bf01528181610cc201528181610d930152610ea501526000818161032f015281816110830152818161181c0152818161183d015261195d015260006117e00152612a706000f3fe6080604052600436106100aa5760003560e01c80638dc654a2116100645780638dc654a2146101a5578063a648567b146101bc578063b8e5c757146101d8578063e2eb41ff146101ef578063f0acd7d51461022e578063fb632b7c14610259576100b1565b8062113e08146100b6578063117a5b90146100e25780631fe543e314610123578063793cd71e1461014c5780637fd42617146101635780638da5cb5b1461017a576100b1565b366100b157005b600080fd5b3480156100c257600080fd5b506100cb610284565b6040516100d9929190611a0c565b60405180910390f35b3480156100ee57600080fd5b5061010960048036038101906101049190611a75565b6102d0565b60405161011a959493929190611abd565b60405180910390f35b34801561012f57600080fd5b5061014a60048036038101906101459190611c69565b61032d565b005b34801561015857600080fd5b506101616103c9565b005b34801561016f57600080fd5b50610178610521565b005b34801561018657600080fd5b5061018f610699565b60405161019c9190611d06565b60405180910390f35b3480156101b157600080fd5b506101ba6106bd565b005b6101d660048036038101906101d19190611d5a565b61089d565b005b3480156101e457600080fd5b506101ed610cc0565b005b3480156101fb57600080fd5b5061021660048036038101906102119190611dc6565b610dfa565b60405161022593929190611e02565b60405180910390f35b34801561023a57600080fd5b50610243610e4b565b6040516102509190611e39565b60405180910390f35b34801561026557600080fd5b5061026e611172565b60405161027b9190611e39565b60405180910390f35b60008047600660003373ffffffffffffffffffffffffffffffffffffffff1673ffffffffffffffffffffffffffffffffffffffff16815260200190815260200160002054915091509091565b60056020528060005260406000206000915090508060000154908060010160009054906101000a900460ff16908060010160019054906101000a900460ff16908060010160029054906101000a900460ff16908060020154905085565b7f000000000000000000000000000000000000000000000000000000000000000073ffffffffffffffffffffffffffffffffffffffff163373ffffffffffffffffffffffffffffffffffffffff16146103bb576040517f08c379a00000000000000000000000000000000000000000000000000000000081526004016103b290611eb1565b60405180910390fd5b6103c58282611178565b5050565b6000600660003373ffffffffffffffffffffffffffffffffffffffff1673ffffffffffffffffffffffffffffffffffffffff16815260200190815260200160002054905047811061044f576040517f08c379a000000000000000000000000000000000000000000000000000000000815260040161044690611f43565b60405180910390fd5b60008111610492576040517f08c379a000000000000000000000000000000000000000000000000000000000815260040161048990611faf565b60405180910390fd5b6000600660003373ffffffffffffffffffffffffffffffffffffffff1673ffffffffffffffffffffffffffffffffffffffff168152602001908152602001600020819055503373ffffffffffffffffffffffffffffffffffffffff166108fc829081150290604051600060405180830381858888f1935050505015801561051d573d6000803e3d6000fd5b5050565b7f000000000000000000000000000000000000000000000000000000000000000073ffffffffffffffffffffffffffffffffffffffff163373ffffffffffffffffffffffffffffffffffffffff16146105af576040517f08c379a00000000000000000000000000000000000000000000000000000000081526004016105a69061201b565b60405180910390fd5b670de0b6b3a764000067ffffffffffffffff164711610603576040517f08c379a00000000000000000000000000000000000000000000000000000000081526004016105fa906120ad565b60405180910390fd5b6000670de0b6b3a764000067ffffffffffffffff164761062391906120fc565b90506000811115610696577f000000000000000000000000000000000000000000000000000000000000000073ffffffffffffffffffffffffffffffffffffffff166108fc829081150290604051600060405180830381858888f19350505050158015610694573d6000803e3d6000fd5b505b50565b7f000000000000000000000000000000000000000000000000000000000000000081565b7f000000000000000000000000000000000000000000000000000000000000000073ffffffffffffffffffffffffffffffffffffffff163373ffffffffffffffffffffffffffffffffffffffff161461074b576040517f08c379a00000000000000000000000000000000000000000000000000000000081526004016107429061201b565b60405180910390fd5b600073779877a7b0d9e8603169ddbd7836e478b462478990508073ffffffffffffffffffffffffffffffffffffffff1663a9059cbb338373ffffffffffffffffffffffffffffffffffffffff166370a08231306040518263ffffffff1660e01b81526004016107ba9190611d06565b602060405180830381865afa1580156107d7573d6000803e3d6000fd5b505050506040513d601f19601f820116820180604052508101906107fb9190612145565b6040518363ffffffff1660e01b8152600401610818929190612172565b6020604051808303816000875af1158015610837573d6000803e3d6000fd5b505050506040513d601f19601f8201168201806040525081019061085b91906121c7565b61089a576040517f08c379a000000000000000000000000000000000000000000000000000000000815260040161089190612240565b60405180910390fd5b50565b600360003373ffffffffffffffffffffffffffffffffffffffff1673ffffffffffffffffffffffffffffffffffffffff16815260200190815260200160002060000160029054906101000a900460ff161561092d576040517f08c379a0000000000000000000000000000000000000000000000000000000008152600401610924906122ac565b60405180910390fd5b66038d7ea4c6800067ffffffffffffffff163414610980576040517f08c379a000000000000000000000000000000000000000000000000000000000815260040161097790612318565b60405180910390fd5b60058160ff16111580156109c6575060018160ff16600681106109a6576109a5612338565b5b602091828204019190069054906101000a900460ff1660ff168260ff1611155b610a05576040517f08c379a00000000000000000000000000000000000000000000000000000000081526004016109fc906123b3565b60405180910390fd5b60056000600254815260200190815260200160002060010160009054906101000a900460ff16610b27576040518060a0016040528042815260200160011515815260200160001515815260200160001515815260200160008152506005600060025481526020019081526020016000206000820151816000015560208201518160010160006101000a81548160ff02191690831515021790555060408201518160010160016101000a81548160ff02191690831515021790555060608201518160010160026101000a81548160ff021916908315150217905550608082015181600201559050506002547fa2dfaa3573b86004ec9d4d4abe5068d942579c59da4da8cd0d9e45e71a393bc142604051610b1e9190611e39565b60405180910390a25b42601e61ffff1660056000600254815260200190815260200160002060000154610b5191906123d3565b11610b91576040517f08c379a0000000000000000000000000000000000000000000000000000000008152600401610b8890612479565b60405180910390fd5b60405180606001604052808260ff1681526020018360ff16815260200160011515815250600360003373ffffffffffffffffffffffffffffffffffffffff1673ffffffffffffffffffffffffffffffffffffffff16815260200190815260200160002060008201518160000160006101000a81548160ff021916908360ff16021790555060208201518160000160016101000a81548160ff021916908360ff16021790555060408201518160000160026101000a81548160ff0219169083151502179055509050506004339080600181540180825580915050600190039060005260206000200160009091909190916101000a81548173ffffffffffffffffffffffffffffffffffffffff021916908373ffffffffffffffffffffffffffffffffffffffff1602179055505050565b7f000000000000000000000000000000000000000000000000000000000000000073ffffffffffffffffffffffffffffffffffffffff163373ffffffffffffffffffffffffffffffffffffffff1614610d4e576040517f08c379a0000000000000000000000000000000000000000000000000000000008152600401610d459061201b565b60405180910390fd5b60004711610d91576040517f08c379a0000000000000000000000000000000000000000000000000000000008152600401610d889061250b565b60405180910390fd5b7f000000000000000000000000000000000000000000000000000000000000000073ffffffffffffffffffffffffffffffffffffffff166108fc479081150290604051600060405180830381858888f19350505050158015610df7573d6000803e3d6000fd5b50565b60036020528060005260406000206000915090508060000160009054906101000a900460ff16908060000160019054906101000a900460ff16908060000160029054906101000a900460ff16905083565b6000600360003373ffffffffffffffffffffffffffffffffffffffff1673ffffffffffffffffffffffffffffffffffffffff16815260200190815260200160002060000160029054906101000a900460ff1680610ef357507f000000000000000000000000000000000000000000000000000000000000000073ffffffffffffffffffffffffffffffffffffffff163373ffffffffffffffffffffffffffffffffffffffff16145b610f32576040517f08c379a0000000000000000000000000000000000000000000000000000000008152600401610f299061259d565b60405180910390fd5b60056000600254815260200190815260200160002060010160009054906101000a900460ff16610f97576040517f08c379a0000000000000000000000000000000000000000000000000000000008152600401610f8e90612609565b60405180910390fd5b42601e61ffff1660056000600254815260200190815260200160002060000154610fc191906123d3565b10611001576040517f08c379a0000000000000000000000000000000000000000000000000000000008152600401610ff890612675565b60405180910390fd5b60056000600254815260200190815260200160002060010160019054906101000a900460ff1615611067576040517f08c379a000000000000000000000000000000000000000000000000000000000815260040161105e906126e1565b60405180910390fd5b600061107f620f4240600360ff16600160ff166117dc565b90507f000000000000000000000000000000000000000000000000000000000000000073ffffffffffffffffffffffffffffffffffffffff16634306d354620f42406040518263ffffffff1660e01b81526004016110dd9190612720565b602060405180830381865afa1580156110fa573d6000803e3d6000fd5b505050506040513d601f19601f8201168201806040525081019061111e9190612145565b60056000600254815260200190815260200160002060020181905550600160056000600254815260200190815260200160002060010160016101000a81548160ff0219169083151502179055508091505090565b60025481565b600060056000600254815260200190815260200160002060020154116111d3576040517f08c379a00000000000000000000000000000000000000000000000000000000081526004016111ca90612787565b60405180910390fd5b600160056000600254815260200190815260200160002060010160026101000a81548160ff021916908315150217905550600060258260008151811061121c5761121b612338565b5b602002602001015161122e91906127d6565b9050600080600060048054905090505b6000811115611789576000600460018361125891906120fc565b8154811061126957611268612338565b5b9060005260206000200160009054906101000a900473ffffffffffffffffffffffffffffffffffffffff1690506000600360008373ffffffffffffffffffffffffffffffffffffffff1673ffffffffffffffffffffffffffffffffffffffff16815260200190815260200160002060000160009054906101000a900460ff169450600360008373ffffffffffffffffffffffffffffffffffffffff1673ffffffffffffffffffffffffffffffffffffffff16815260200190815260200160002060000160019054906101000a900460ff16935060008660ff16036113645760058560ff1614801561135d575060008460ff16145b90506115bb565b60058560ff160361137f578560ff168460ff161490506115ba565b60048560ff16036113d15760008460ff16036113ab5760006002876113a49190612807565b60ff161490505b60018460ff16036113cc5760016002876113c59190612807565b60ff161490505b6115b9565b60038560ff160361140d5760008460ff16036113f25760128660ff16111590505b60018460ff16036114085760138660ff16101590505b6115b8565b60028560ff160361146d5760008460ff160361142e57600c8660ff16111590505b60018460ff160361145357600c8660ff16118015611450575060188660ff1611155b90505b60028460ff16036114685760188660ff161190505b6115b7565b60018560ff16036114e05760008460ff16036114995760016003876114929190612807565b60ff161490505b60018460ff16036114ba5760026003876114b39190612807565b60ff161490505b60028460ff16036114db5760006003876114d49190612807565b60ff161490505b6115b6565b60008560ff16036115b55760008460ff160361155757600a8660ff1611158061151d575060148660ff161015801561151c5750601c8660ff1611155b5b1561153c5760006002876115319190612807565b60ff16149050611552565b600160028761154b9190612807565b60ff161490505b6115b4565b600a8660ff1611158061157e575060148660ff161015801561157d5750601c8660ff1611155b5b1561159d5760016002876115929190612807565b60ff161490506115b3565b60006002876115ac9190612807565b60ff161490505b5b5b5b5b5b5b5b5b80156116635760008560ff16600681106115d8576115d7612338565b5b602091828204019190069054906101000a900460ff1660ff1666038d7ea4c68000611603919061284c565b67ffffffffffffffff16600660008473ffffffffffffffffffffffffffffffffffffffff1673ffffffffffffffffffffffffffffffffffffffff168152602001908152602001600020600082825461165b91906123d3565b925050819055505b6040518060600160405280600060ff168152602001600060ff16815260200160001515815250600360008473ffffffffffffffffffffffffffffffffffffffff1673ffffffffffffffffffffffffffffffffffffffff16815260200190815260200160002060008201518160000160006101000a81548160ff021916908360ff16021790555060208201518160000160016101000a81548160ff021916908360ff16021790555060408201518160000160026101000a81548160ff021916908315150217905550905050600480548061173f5761173e612889565b5b6001900381819060005260206000200160006101000a81549073ffffffffffffffffffffffffffffffffffffffff0219169055905550508080611781906128b8565b91505061123e565b508260ff166002547f0869338c2bea036893a01b04610510f305407cfb199fbcc2e7e22e76bae8291760405160405180910390a3600260008154809291906117d0906128e1565b91905055505050505050565b60007f000000000000000000000000000000000000000000000000000000000000000073ffffffffffffffffffffffffffffffffffffffff16634000aea07f00000000000000000000000000000000000000000000000000000000000000007f000000000000000000000000000000000000000000000000000000000000000073ffffffffffffffffffffffffffffffffffffffff16634306d354886040518263ffffffff1660e01b81526004016118949190612720565b602060405180830381865afa1580156118b1573d6000803e3d6000fd5b505050506040513d601f19601f820116820180604052508101906118d59190612145565b8787876040516020016118ea93929190612946565b6040516020818303038152906040526040518463ffffffff1660e01b8152600401611917939291906129fc565b6020604051808303816000875af1158015611936573d6000803e3d6000fd5b505050506040513d601f19601f8201168201806040525081019061195a91906121c7565b507f000000000000000000000000000000000000000000000000000000000000000073ffffffffffffffffffffffffffffffffffffffff1663fc2a88c36040518163ffffffff1660e01b8152600401602060405180830381865afa1580156119c6573d6000803e3d6000fd5b505050506040513d601f19601f820116820180604052508101906119ea9190612145565b90509392505050565b6000819050919050565b611a06816119f3565b82525050565b6000604082019050611a2160008301856119fd565b611a2e60208301846119fd565b9392505050565b6000604051905090565b600080fd5b600080fd5b611a52816119f3565b8114611a5d57600080fd5b50565b600081359050611a6f81611a49565b92915050565b600060208284031215611a8b57611a8a611a3f565b5b6000611a9984828501611a60565b91505092915050565b60008115159050919050565b611ab781611aa2565b82525050565b600060a082019050611ad260008301886119fd565b611adf6020830187611aae565b611aec6040830186611aae565b611af96060830185611aae565b611b0660808301846119fd565b9695505050505050565b600080fd5b6000601f19601f8301169050919050565b7f4e487b7100000000000000000000000000000000000000000000000000000000600052604160045260246000fd5b611b5e82611b15565b810181811067ffffffffffffffff82111715611b7d57611b7c611b26565b5b80604052505050565b6000611b90611a35565b9050611b9c8282611b55565b919050565b600067ffffffffffffffff821115611bbc57611bbb611b26565b5b602082029050602081019050919050565b600080fd5b6000611be5611be084611ba1565b611b86565b90508083825260208201905060208402830185811115611c0857611c07611bcd565b5b835b81811015611c315780611c1d8882611a60565b845260208401935050602081019050611c0a565b5050509392505050565b600082601f830112611c5057611c4f611b10565b5b8135611c60848260208601611bd2565b91505092915050565b60008060408385031215611c8057611c7f611a3f565b5b6000611c8e85828601611a60565b925050602083013567ffffffffffffffff811115611caf57611cae611a44565b5b611cbb85828601611c3b565b9150509250929050565b600073ffffffffffffffffffffffffffffffffffffffff82169050919050565b6000611cf082611cc5565b9050919050565b611d0081611ce5565b82525050565b6000602082019050611d1b6000830184611cf7565b92915050565b600060ff82169050919050565b611d3781611d21565b8114611d4257600080fd5b50565b600081359050611d5481611d2e565b92915050565b60008060408385031215611d7157611d70611a3f565b5b6000611d7f85828601611d45565b9250506020611d9085828601611d45565b9150509250929050565b611da381611ce5565b8114611dae57600080fd5b50565b600081359050611dc081611d9a565b92915050565b600060208284031215611ddc57611ddb611a3f565b5b6000611dea84828501611db1565b91505092915050565b611dfc81611d21565b82525050565b6000606082019050611e176000830186611df3565b611e246020830185611df3565b611e316040830184611aae565b949350505050565b6000602082019050611e4e60008301846119fd565b92915050565b600082825260208201905092915050565b7f6f6e6c792056524620563220777261707065722063616e2066756c66696c6c00600082015250565b6000611e9b601f83611e54565b9150611ea682611e65565b602082019050919050565b60006020820190508181036000830152611eca81611e8e565b9050919050565b7f4e6f7420656e6f756768206d6f6e6579206f6e2074686520636f6e747261637460008201527f27732062616c616e63652e2054727920616761696e206c617465722e00000000602082015250565b6000611f2d603c83611e54565b9150611f3882611ed1565b604082019050919050565b60006020820190508181036000830152611f5c81611f20565b9050919050565b7f596f752068617665206e6f2077696e6e696e67732e0000000000000000000000600082015250565b6000611f99601583611e54565b9150611fa482611f63565b602082019050919050565b60006020820190508181036000830152611fc881611f8c565b9050919050565b7f4e6f7420616e206f776e65722e00000000000000000000000000000000000000600082015250565b6000612005600d83611e54565b915061201082611fcf565b602082019050919050565b6000602082019050818103600083015261203481611ff8565b9050919050565b7f4e6f7420656e6f756768206d6f6e657920746f2073616665207769746864726160008201527f772e000000000000000000000000000000000000000000000000000000000000602082015250565b6000612097602283611e54565b91506120a28261203b565b604082019050919050565b600060208201905081810360008301526120c68161208a565b9050919050565b7f4e487b7100000000000000000000000000000000000000000000000000000000600052601160045260246000fd5b6000612107826119f3565b9150612112836119f3565b925082820390508181111561212a576121296120cd565b5b92915050565b60008151905061213f81611a49565b92915050565b60006020828403121561215b5761215a611a3f565b5b600061216984828501612130565b91505092915050565b60006040820190506121876000830185611cf7565b61219460208301846119fd565b9392505050565b6121a481611aa2565b81146121af57600080fd5b50565b6000815190506121c18161219b565b92915050565b6000602082840312156121dd576121dc611a3f565b5b60006121eb848285016121b2565b91505092915050565b7f556e61626c6520746f207472616e736665722e00000000000000000000000000600082015250565b600061222a601383611e54565b9150612235826121f4565b602082019050919050565b600060208201905081810360008301526122598161221d565b9050919050565b7f596f752063616e206f6e6c7920706c616365206f6e65206265742e0000000000600082015250565b6000612296601b83611e54565b91506122a182612260565b602082019050919050565b600060208201905081810360008301526122c581612289565b9050919050565b7f456e7472792066656573206e6f742073656e742e000000000000000000000000600082015250565b6000612302601483611e54565b915061230d826122cc565b602082019050919050565b60006020820190508181036000830152612331816122f5565b9050919050565b7f4e487b7100000000000000000000000000000000000000000000000000000000600052603260045260246000fd5b7f496e636f7272656374206265742074797065206f722076616c75652e00000000600082015250565b600061239d601c83611e54565b91506123a882612367565b602082019050919050565b600060208201905081810360008301526123cc81612390565b9050919050565b60006123de826119f3565b91506123e9836119f3565b9250828201905080821115612401576124006120cd565b5b92915050565b7f54696d657220657870697265642e205761697420666f72206e65772067616d6560008201527f2e00000000000000000000000000000000000000000000000000000000000000602082015250565b6000612463602183611e54565b915061246e82612407565b604082019050919050565b6000602082019050818103600083015261249281612456565b9050919050565b7f4e6f206d6f6e6579206f6e2074686520636f6e747261637427732062616c616e60008201527f63652e0000000000000000000000000000000000000000000000000000000000602082015250565b60006124f5602383611e54565b915061250082612499565b604082019050919050565b60006020820190508181036000830152612524816124e8565b9050919050565b7f4f6e6c792074686520706c61796572206f72206f776e65722063616e2073706960008201527f6e2e000000000000000000000000000000000000000000000000000000000000602082015250565b6000612587602283611e54565b91506125928261252b565b604082019050919050565b600060208201905081810360008301526125b68161257a565b9050919050565b7f4e6f626f647920696e207468652067616d652e00000000000000000000000000600082015250565b60006125f3601383611e54565b91506125fe826125bd565b602082019050919050565b60006020820190508181036000830152612622816125e6565b9050919050565b7f54696d657220686173206e6f7420657870697265642e00000000000000000000600082015250565b600061265f601683611e54565b915061266a82612629565b602082019050919050565b6000602082019050818103600083015261268e81612652565b9050919050565b7f47616d65206973206163746976652e0000000000000000000000000000000000600082015250565b60006126cb600f83611e54565b91506126d682612695565b602082019050919050565b600060208201905081810360008301526126fa816126be565b9050919050565b600063ffffffff82169050919050565b61271a81612701565b82525050565b60006020820190506127356000830184612711565b92915050565b7f52657175657374206e6f7420666f756e642e0000000000000000000000000000600082015250565b6000612771601283611e54565b915061277c8261273b565b602082019050919050565b600060208201905081810360008301526127a081612764565b9050919050565b7f4e487b7100000000000000000000000000000000000000000000000000000000600052601260045260246000fd5b60006127e1826119f3565b91506127ec836119f3565b9250826127fc576127fb6127a7565b5b828206905092915050565b600061281282611d21565b915061281d83611d21565b92508261282d5761282c6127a7565b5b828206905092915050565b600067ffffffffffffffff82169050919050565b600061285782612838565b915061286283612838565b925082820261287081612838565b9150808214612882576128816120cd565b5b5092915050565b7f4e487b7100000000000000000000000000000000000000000000000000000000600052603160045260246000fd5b60006128c3826119f3565b9150600082036128d6576128d56120cd565b5b600182039050919050565b60006128ec826119f3565b91507fffffffffffffffffffffffffffffffffffffffffffffffffffffffffffffffff820361291e5761291d6120cd565b5b600182019050919050565b600061ffff82169050919050565b61294081612929565b82525050565b600060608201905061295b6000830186612711565b6129686020830185612937565b6129756040830184612711565b949350505050565b600081519050919050565b600082825260208201905092915050565b60005b838110156129b757808201518184015260208101905061299c565b60008484015250505050565b60006129ce8261297d565b6129d88185612988565b93506129e8818560208601612999565b6129f181611b15565b840191505092915050565b6000606082019050612a116000830186611cf7565b612a1e60208301856119fd565b8181036040830152612a3081846129c3565b905094935050505056fea26469706673582212206af4fb273201e1144bfa08adac4965345e90a815472c2024ad75ef79905dea6564736f6c63430008120033",
  "linkReferences": {},
  "deployedLinkReferences": {}
}